{
  "contractName": "Limitation",
  "abi": [
    {
      "constant": false,
      "inputs": [],
      "name": "cancelTransferringOwnership",
      "outputs": [],
      "payable": false,
      "stateMutability": "nonpayable",
      "type": "function"
    },
    {
      "constant": false,
      "inputs": [],
      "name": "acceptOwnership",
      "outputs": [],
      "payable": false,
      "stateMutability": "nonpayable",
      "type": "function"
    },
    {
      "constant": true,
      "inputs": [],
      "name": "owner",
      "outputs": [
        {
          "name": "",
          "type": "address"
        }
      ],
      "payable": false,
      "stateMutability": "view",
      "type": "function"
    },
    {
      "constant": true,
      "inputs": [],
      "name": "temporaryNewOwner",
      "outputs": [
        {
          "name": "",
          "type": "address"
        }
      ],
      "payable": false,
      "stateMutability": "view",
      "type": "function"
    },
    {
      "constant": true,
      "inputs": [
        {
          "name": "",
          "type": "uint256"
        }
      ],
      "name": "periods",
      "outputs": [
        {
          "name": "number",
          "type": "uint256"
        },
        {
          "name": "start",
          "type": "uint256"
        },
        {
          "name": "end",
          "type": "uint256"
        },
        {
          "name": "tokensPerPeriod",
          "type": "uint256"
        },
        {
          "name": "soldTokens",
          "type": "uint256"
        },
        {
          "name": "rate",
          "type": "uint256"
        }
      ],
      "payable": false,
      "stateMutability": "view",
      "type": "function"
    },
    {
      "constant": false,
      "inputs": [
        {
          "name": "newOwner",
          "type": "address"
        }
      ],
      "name": "transferOwnership",
      "outputs": [],
      "payable": false,
      "stateMutability": "nonpayable",
      "type": "function"
    },
    {
      "anonymous": false,
      "inputs": [
        {
          "indexed": true,
          "name": "from",
          "type": "address"
        },
        {
          "indexed": true,
          "name": "to",
          "type": "address"
        }
      ],
      "name": "TransferOwnership",
      "type": "event"
    },
    {
      "constant": false,
      "inputs": [
        {
          "name": "number",
          "type": "uint256"
        },
        {
          "name": "start",
          "type": "uint256"
        },
        {
          "name": "end",
          "type": "uint256"
        },
        {
          "name": "rate",
          "type": "uint256"
        }
      ],
      "name": "changePeriodValues",
      "outputs": [],
      "payable": false,
      "stateMutability": "nonpayable",
      "type": "function"
    },
    {
      "constant": true,
      "inputs": [],
      "name": "getCurrentPeriod",
      "outputs": [
        {
          "name": "",
          "type": "uint256"
        }
      ],
      "payable": false,
      "stateMutability": "view",
      "type": "function"
    }
  ],
  "bytecode": "0x6080604052336000806101000a81548173ffffffffffffffffffffffffffffffffffffffff021916908373ffffffffffffffffffffffffffffffffffffffff1602179055506108bf806100536000396000f30060806040526004361061008e576000357c0100000000000000000000000000000000000000000000000000000000900463ffffffff168063086146d214610093578063602add5e146100be57806379ba5097146100d55780638da5cb5b146100ec578063c9ffc39514610143578063e92f9d751461019a578063ea4a1104146101e5578063f2fde38b14610249575b600080fd5b34801561009f57600080fd5b506100a861028c565b6040518082815260200191505060405180910390f35b3480156100ca57600080fd5b506100d3610330565b005b3480156100e157600080fd5b506100ea6103cf565b005b3480156100f857600080fd5b5061010161056e565b604051808273ffffffffffffffffffffffffffffffffffffffff1673ffffffffffffffffffffffffffffffffffffffff16815260200191505060405180910390f35b34801561014f57600080fd5b50610158610593565b604051808273ffffffffffffffffffffffffffffffffffffffff1673ffffffffffffffffffffffffffffffffffffffff16815260200191505060405180910390f35b3480156101a657600080fd5b506101e3600480360381019080803590602001909291908035906020019092919080359060200190929190803590602001909291905050506105b9565b005b3480156101f157600080fd5b506102106004803603810190808035906020019092919050505061067f565b60405180878152602001868152602001858152602001848152602001838152602001828152602001965050505050505060405180910390f35b34801561025557600080fd5b5061028a600480360381019080803573ffffffffffffffffffffffffffffffffffffffff1690602001909291905050506106ca565b005b600080600090505b60028054905081101561032b57426002828154811015156102b157fe5b906000526020600020906006020160010154111580156102f15750426002828154811015156102dc57fe5b90600052602060002090600602016002015410155b1561031e5760028181548110151561030557fe5b906000526020600020906006020160000154915061032c565b8080600101915050610294565b5b5090565b6000809054906101000a900473ffffffffffffffffffffffffffffffffffffffff1673ffffffffffffffffffffffffffffffffffffffff163373ffffffffffffffffffffffffffffffffffffffff1614151561038b57600080fd5b6000600160006101000a81548173ffffffffffffffffffffffffffffffffffffffff021916908373ffffffffffffffffffffffffffffffffffffffff160217905550565b600160009054906101000a900473ffffffffffffffffffffffffffffffffffffffff1673ffffffffffffffffffffffffffffffffffffffff163373ffffffffffffffffffffffffffffffffffffffff1614151561042b57600080fd5b600160009054906101000a900473ffffffffffffffffffffffffffffffffffffffff1673ffffffffffffffffffffffffffffffffffffffff166000809054906101000a900473ffffffffffffffffffffffffffffffffffffffff1673ffffffffffffffffffffffffffffffffffffffff167f5c486528ec3e3f0ea91181cff8116f02bfa350e03b8b6f12e00765adbb5af85c60405160405180910390a3600160009054906101000a900473ffffffffffffffffffffffffffffffffffffffff166000806101000a81548173ffffffffffffffffffffffffffffffffffffffff021916908373ffffffffffffffffffffffffffffffffffffffff1602179055506000600160006101000a81548173ffffffffffffffffffffffffffffffffffffffff021916908373ffffffffffffffffffffffffffffffffffffffff160217905550565b6000809054906101000a900473ffffffffffffffffffffffffffffffffffffffff1681565b600160009054906101000a900473ffffffffffffffffffffffffffffffffffffffff1681565b6000809054906101000a900473ffffffffffffffffffffffffffffffffffffffff1673ffffffffffffffffffffffffffffffffffffffff163373ffffffffffffffffffffffffffffffffffffffff1614151561061457600080fd5b836001600280549050031015151561062b57600080fd5b61067984848460028881548110151561064057fe5b90600052602060002090600602016003015460028981548110151561066157fe5b906000526020600020906006020160040154866107a5565b50505050565b60028181548110151561068e57fe5b90600052602060002090600602016000915090508060000154908060010154908060020154908060030154908060040154908060050154905086565b6000809054906101000a900473ffffffffffffffffffffffffffffffffffffffff1673ffffffffffffffffffffffffffffffffffffffff163373ffffffffffffffffffffffffffffffffffffffff1614151561072557600080fd5b600073ffffffffffffffffffffffffffffffffffffffff168173ffffffffffffffffffffffffffffffffffffffff161415151561076157600080fd5b80600160006101000a81548173ffffffffffffffffffffffffffffffffffffffff021916908373ffffffffffffffffffffffffffffffffffffffff16021790555050565b6000861415156107e2576002600187038154811015156107c157fe5b90600052602060002090600602016002015485101515156107e157600080fd5b5b8484101515156107f157600080fd5b600260c0604051908101604052808881526020018781526020018681526020018581526020018481526020018381525090806001815401808255809150509060018203906000526020600020906006020160009091929091909150600082015181600001556020820151816001015560408201518160020155606082015181600301556080820151816004015560a082015181600501555050505050505050505600a165627a7a72305820afec90c69c9adacbc972387824bae09a2201a8974533e97584bf06e239533a870029",
  "source": "pragma solidity ^0.4.17;\r\n\r\nimport './Ownable.sol';\r\n\r\ncontract Limitation is Ownable{\r\n    \r\n    struct Period {\r\n        //Period number\r\n        uint256 number;\r\n        // UNIX timestamp of period start\r\n        uint256 start;\r\n        // UNIX timestamp of period finish\r\n        uint256 end;\r\n        //Amount of tokens available per period\r\n        uint256 tokensPerPeriod;\r\n        //Sold tokens amount\r\n        uint256 soldTokens;\r\n        // Price per token per period\r\n        uint256 rate;\r\n    }\r\n    \r\n    Period[] public periods;\r\n    \r\n    function setPeriodValues (uint256 number, uint256 start, uint256 end, uint256 tokensPerPeriod, uint256 soldTokens, uint256 rate) internal {\r\n        if (number != 0) {\r\n            require (start >= periods[number-1].end);\r\n        }\r\n        require (end >= start);\r\n        periods.push(Period(number, start, end, tokensPerPeriod, soldTokens, rate));\r\n    }\r\n    \r\n    function changePeriodValues (uint256 number, uint256 start, uint256 end, uint256 rate) public onlyOwner {\r\n        require (periods.length - 1 >= number);\r\n        setPeriodValues(number, start, end, periods[number].tokensPerPeriod, periods[number].soldTokens, rate);\r\n    }\r\n    \r\n    function getCurrentPeriod() public constant returns (uint256) {\r\n      for (uint i = 0; i < periods.length; i++) {\r\n        if (periods[i].start <= now && periods[i].end >= now) {\r\n          return periods[i].number;\r\n        }\r\n      }\r\n    }\r\n    \r\n    modifier canUseTokens () {\r\n        require (now > periods[periods.length - 1].end);\r\n        _;\r\n    }\r\n}",
  "sourcePath": "C:\\Users\\Vika\\Documents\\SolidityProject\\contracts\\Limitation.sol",
  "compiler": {
    "name": "solc",
    "version": "0.4.24+commit.e67f0147.Emscripten.clang"
  },
  "schemaVersion": "2.0.1",
  "updatedAt": "2018-07-24T11:51:49.387Z"
}